:100000000C942D010C9455010C9455010C949904F9
:100010000C9499040C9499040C9455010C9455017A
:100020000C9455010C9455010C9455010C945501F8
:100030000C9455010C9455010C9455010C945501E8
:100040000C9448040C9455010C944B030C94250318
:100050000C9455010C9455010C9455010C945501C8
:100060000C9455010C94550150415F4D415800507E
:10007000415F484947480050415F4C4F570050414D
:100080005F4D494E0031362062697473003820623A
:100090006974730044697361626C6564006E5246F2
:1000A00032344C30312B006E524632344C303100F9
:1000B0003235304B42505300324D42505300314D97
:1000C0004250530000000008000201000003040732
:1000D00000000000000000000000000024002700D5
:1000E0002A005354415455530909203D20307825A6
:1000F0003032782052585F44523D25782054585F62
:1001000044533D2578204D41585F52543D25782079
:1001100052585F505F4E4F3D25782054585F4655EA
:100120004C4C3D25780D0A00504120506F77657288
:1001300009203D2025530D0A007E0077006F0068DE
:1001400000435243204C656E67746809203D2025AA
:10015000530D0A0094008D0085004D6F64656C0995
:1001600009203D2025530D0A00A7009D004461741D
:1001700061205261746509203D2025530D0A00BE9F
:1001800000B800B00044594E50442F4645415455E4
:10019000524500434F4E464947090052465F53457A
:1001A0005455500052465F43480900454E5F52582F
:1001B0004144445200454E5F4141090052585F504E
:1001C000575F50302D360054585F41444452090067
:1001D00052585F414444525F50322D350052585FAF
:1001E000414444525F50302D31000D0A0025303219
:1001F000780020307800255309203D000D0A0020AA
:1002000030782530327800255309203D0011121333
:100210001415160001020304050000000025002843
:10022000002B000000000023002600290004040425
:10023000040404040402020202020203030303038F
:10024000030102040810204080010204081020016C
:10025000020408102000310B270B11241FBECFEF22
:10026000D8E0DEBFCDBF11E0A0E0B1E0ECE6F1E206
:1002700002C005900D92AA32B107D9F722E0AAE296
:10028000B1E001C01D92A635B207E1F711E0CCE262
:10029000D1E004C02197FE010E949E10CB32D1070D
:1002A000C9F70E94D9070C94A9100C940000FC0116
:1002B000538D448D252F30E0842F90E0821B930BCB
:1002C000541710F0CF96089501970895FC01918D71
:1002D000828D981761F0828DDF01A80FB11D5D96A8
:1002E0008C91928D9F5F9F73928F90E008958FEF16
:1002F0009FEF0895FC01918D828D981731F0828DCA
:10030000E80FF11D858D90E008958FEF9FEF089520
:10031000FC01918D228D892F90E0805C9F4F821B84
:1003200091098F739927089588E791E00E948801C9
:1003300021E0892B09F420E0822F0895FC01848DAF
:10034000DF01A80FB11DA35ABF4F2C91848D90E0FF
:1003500001968F739927848FA689B7892C93A089DA
:10036000B1898C9180648C93938D848D981306C091
:100370000288F389E02D80818F7D80830895EF923C
:10038000FF920F931F93CF93DF93EC0181E0888F4F
:100390009B8D8C8D981305C0E889F989808185FD36
:1003A00024C0F62E0B8D10E00F5F1F4F0F73112727
:1003B000E02E8C8DE8120CC00FB607FCFACFE8894E
:1003C000F989808185FFF5CFCE010E949E01F1CF92
:1003D0008B8DFE01E80FF11DE35AFF4FF0820B8F6A
:1003E000EA89FB898081806207C0EE89FF8960838A
:1003F000E889F98980818064808381E090E0DF91E1
:10040000CF911F910F91FF90EF900895CF93DF93BD
:10041000EC01888D8823C9F0EA89FB89808185FDFC
:1004200005C0A889B9898C9186FD0FC00FB607FC5D
:10043000F5CF808185FFF2CFA889B9898C9185FF9E
:10044000EDCFCE010E949E01E7CFDF91CF910895BD
:1004500080E090E0892B29F00E94940181110C9496
:10046000000008953FB7F89480916F01909170015A
:10047000A0917101B091720126B5A89B05C02F3FD4
:1004800019F00196A11DB11D3FBFBA2FA92F982FBA
:100490008827820F911DA11DB11DBC01CD0143E034
:1004A000660F771F881F991F4A95D1F708952091ED
:1004B0007501309176012817390771F49091730115
:1004C00080917401981741F0E0917301F0E0E65DCE
:1004D000FE4F808190E008958FEF9FEF089508957B
:1004E0001F93CF93DF93DC015C962D913C915D9738
:1004F0002115310539F481E090E013969C938E9399
:1005000012973DC05196ED91FC91529750969C9157
:100510005097892F80951FB75E964C915E9741FB4F
:10052000772770F941FD6095F8944081772311F0A9
:10053000492B01C048234083E9012197F1F748E0A6
:10054000508160FF02C0592B01C058235083E9013C
:100550002197F1F76695415099F7772321F0908123
:100560008923808303C08081982B90831FBF5C9672
:100570008D919C915D970197F1F721E030E0C901E1
:10058000DF91CF911F9108952091750130917601EF
:100590002817390771F4809174012091730190E05C
:1005A000805C9F4F821B910960E470E00E9476108E
:1005B000089580E090E008952091750130917601D2
:1005C00028173907B9F49091730180917401981735
:1005D00089F0E0917301F0E0E65DFE4F80812091AB
:1005E000730130E02F5F3F4F2F7333272093730148
:1005F00090E008958FEF9FEF0895E0917501F091DD
:100600007601E817F90769F4A389B4899C91858973
:10061000809589238C93109276011092750181E068
:10062000089580E00895089580E090E00895CF93C4
:10063000C82F682F88E791E00E94BF018C2FCC0F54
:10064000990BCF9108950E94A4101F920F920FB69C
:100650000F9211242F933F934F935F936F937F9348
:100660008F939F93AF93BF93EF93FF9388E791E0AE
:100670000E949E01FF91EF91BF91AF919F918F9149
:100680007F916F915F914F913F912F910F900FBE8E
:100690000F901F9018951F920F920FB60F92112472
:1006A0002F938F939F93EF93FF93E0918801F091A5
:1006B00089018081E0918E01F0918F0182FD12C04D
:1006C0009081809191018F5F8F73209192018217A9
:1006D00051F0E0919101F0E0E858FE4F958F809342
:1006E000910101C08081FF91EF919F918F912F9196
:1006F0000F900FBE0F901F90189590E0FC01EC53E7
:10070000FF4F3491FC01EF5BFD4F2491FC01E35D51
:10071000FD4FE491EE2309F43BC0332339F133302C
:1007200091F038F43130A9F0323001F584B58F7D85
:1007300012C0373091F03830A1F03430B9F48091E4
:1007400080008F7D03C0809180008F778093800030
:100750000DC084B58F7784BD09C08091B0008F77BC
:1007600003C08091B0008F7D8093B000F0E0EE0F69
:10077000FF1FE75EFD4FA591B4918FB7F894EC9100
:10078000611103C020952E2301C02E2B2C938FBF07
:100790000895CF93DF9390E0FC01EF5BFD4F249130
:1007A000FC01E35DFD4F8491882361F190E0880FA7
:1007B000991FFC01E852FF4FC591D491FC01E75EFF
:1007C000FD4FA591B491611109C09FB7F89488813C
:1007D000209582238883EC912E230BC0623061F434
:1007E0009FB7F8943881822F809583238883EC917A
:1007F0002E2B2C939FBF06C08FB7F894E8812E2B29
:1008000028838FBFDF91CF9108958330910528F021
:10081000880F991F04970197F1F708958F929F927F
:10082000AF92BF92CF92DF92EF92FF926B017C0169
:100830000E9432024B015C01C114D104E104F104B5
:10084000F1F00E943202DC01CB0188199909AA0952
:10085000BB09883E9340A105B10570F321E0C21A9F
:10086000D108E108F10888EE880E83E0981EA11CEB
:10087000B11CC114D104E104F10419F7DDCFFF90DC
:10088000EF90DF90CF90BF90AF909F908F900895A2
:100890001F920F920FB60F9211242F933F938F93B5
:1008A0009F93AF93BF9380916B0190916C01A09146
:1008B0006D01B0916E0130916A0126E0230F2D3752
:1008C00020F40296A11DB11D05C029E8230F03964F
:1008D000A11DB11D20936A0180936B0190936C015F
:1008E000A0936D01B0936E0180916F0190917001A2
:1008F000A0917101B09172010196A11DB11D80936B
:100900006F0190937001A0937101B0937201BF9138
:10091000AF919F918F913F912F910F900FBE0F90AC
:100920001F9018958EBD00000DB407FEFDCF8EB54B
:1009300008951F920F920FB60F9211242F933F9399
:100940004F935F936F937F938F939F93AF93BF93D7
:10095000EF93FF93E0917501F0917601309709F4E0
:1009600051C0968DA685B785858591FF04C09C9161
:10097000892329F447C09C91892309F043C0A389A6
:10098000B4899C918589809589238C9386899789E0
:100990000197F1F7608D718DA685B785558538E093
:1009A00020E0CB010197F1F7822F90E09595879594
:1009B000282F4C91452309F02068315091F7868DFE
:1009C00081FD20958091740190E001968F739927A5
:1009D00030917301381749F0A0917401B0E0A65D21
:1009E000BE4F2C938093740103C0868D8160868FE7
:1009F000828D938D0197F1F7A389B4899C918589A4
:100A0000892B8C93FF91EF91BF91AF919F918F9123
:100A10007F916F915F914F913F912F910F900FBEFA
:100A20000F901F901895CF92DF92EF92FF920F9345
:100A30001F93CF93DF936C017A018B01C0E0D0E06C
:100A4000CE15DF0589F0D8016D918D01D601ED91AC
:100A5000FC910190F081E02DC6010995892B11F4DC
:100A60007E0102C02196ECCFC701DF91CF911F918B
:100A70000F91FF90EF90DF90CF900895CF93DF9389
:100A80009CB59F7D9CBD9CB5937F9CBD9CB59C7F78
:100A90009CBD9DB591609DBDC4E3D2E0682F8A8165
:100AA0000E947D038C899D89DF91CF910C94050470
:100AB00081E00C943E0580E00C943E05CF93DF93DB
:100AC0001F92CDB7DEB789830E945B0589810E94A2
:100AD000920489830E94580589810F90DF91CF91FC
:100AE000089581EE0C945E05CF93DF931F92CDB7EE
:100AF000DEB789830E945B0589818F710E94920411
:100B00008FEF0E94920489830E94580589810F907B
:100B1000DF91CF9108951F93CF93DF9300D0CDB78E
:100B2000DEB76A8389830E945B0589818F71806249
:100B30000E949204182F6A81862F0E9492040E94BC
:100B40005805812F0F900F90DF91CF911F9108953D
:100B5000EF92FF920F931F93CF93DF9300D01F92DA
:100B6000CDB7DEB7162F4A837B8389830E945B054E
:100B700089818F7180620E949204082FE12E7B810F
:100B8000F72E4A81140F1E1531F0F70181917F0174
:100B90000E949204F8CF0E945805802F0F900F906A
:100BA0000F90DF91CF911F910F91FF90EF900895DB
:100BB0002091340230913502409136025091370233
:100BC0002417350721F0682F822F0C947D03089598
:100BD00080E00E94740581FD0BC0682F626080E098
:100BE0000E948B0565E070E080E090E00C940E04BC
:100BF00008950E94E80580E00E947405682F6160F6
:100C000080E00E948B0560E787E00E948B0581E011
:100C10000E94D80580913D02882341F04091420214
:100C20006DE372E08AE00E94A80512C082E00E9493
:100C30007405E3E1F2E0E49121E030E001C0220F2D
:100C4000EA95EAF72095622F682382E00E948B05DF
:100C50008DE10E94740581FD0C9471050895CF9378
:100C6000DF93C82FD0E0FE01E35FFD4F84916091D8
:100C70003B020E948B0582E00E947405FE01ED5E3E
:100C8000FD4FE49161E070E001C0660FEA95EAF77C
:100C9000682B82E0DF91CF910C948B050F931F930B
:100CA000CF93DF93CDB7DEB728970FB6F894DEBFAA
:100CB0000FBECDBF29833A834B835C836D837E83D4
:100CC0008F83988704E312E0F8014685BE016F5FC9
:100CD0007F4F8AE00E94A805F8014685BE016F5F3C
:100CE0007F4F80E10E94A805F801678181E10E94A1
:100CF0008B0528960FB6F894DEBF0FBECDBFDF91EF
:100D0000CF911F910F910895EF92FF920F931F9330
:100D1000CF93DF931F92CDB7DEB7E42E9F938F93CF
:100D200087E092E09F938F9369830E944B0C6981C7
:100D3000E60E0F900F900F900F900FEF11E06E15D1
:100D400091F0FF24F394F60E862F0E9474051F92F3
:100D50008F931F930F930E944B0C0F900F900F9047
:100D60000F906F2DECCF8CEF91E09F938F930E94AB
:100D70004B0C0F900F900F90DF91CF911F910F911F
:100D8000FF90EF9008952F923F924F925F926F9253
:100D90007F928F929F92AF92BF92CF92DF92EF920B
:100DA000FF920F931F93CF93DF931F92CDB7DEB7C0
:100DB000562E342E6DB67EB69F938F9386EF91E0BC
:100DC0009F938F930E944B0C350C0F900F900F90B8
:100DD0000F9082EFC82E81E0D82E9DEEA92E91E0D3
:100DE000B92E531409F44EC08DB69EB690914202AE
:100DF000092F10E02DB73EB7201B310B0FB6F8942A
:100E00003EBF0FBE2DBFEDB7FEB731967F01222446
:100E10002394250C99830E945B05852D8F710E9478
:100E20009204270199819E0D941549F08FEF9983C3
:100E30000E949204F20181932F019981F5CF0E94C3
:100E40005805DF92CF920E944B0C0E0D1F1D0F9084
:100E50000F90015011090E151F0568F0F8018081EF
:100E60001F928F93BF92AF920E944B0C0F900F90E6
:100E70000F900F90EECF0FB6F8949EBE0FBE8DBEB2
:100E8000522CAFCF8AEE91E09F938F930E944B0C30
:100E90000F900F900FB6F8947EBE0FBE6DBE0F90F0
:100EA000DF91CF911F910F91FF90EF90DF90CF9046
:100EB000BF90AF909F908F907F906F905F904F907A
:100EC0003F902F9008950F931F93CF938C0186E04E
:100ED0000E947405C82FC77D0230110531F4C0622D
:100EE0008BE990E0A0E0B0E00DC00130110529F0E1
:100EF00085E590E0A0E0B0E005C0C86081E490E046
:100F0000A0E0B0E08093440290934502A093460293
:100F1000B09347026C2F86E00E948B0586E00E940A
:100F2000740591E08C1390E0892FCF911F910F9160
:100F300008950F931F93CF93DF938C01C0913B02D1
:100F4000DC2FC111D1E080913C02811102C0CD1B88
:100F500001C0C0E00E945B0580EA0E949204DD238C
:100F600021F0F80180810E949204CC2329F080E0D6
:100F70000E949204C150F9CF0E94580581E00E945E
:100F8000D8058FEF0E945E058073D9F380E00E9440
:100F9000D80560E787E00E948B0584FF04C00E94AB
:100FA000710580E001C081E0DF91CF911F910F9129
:100FB0000895CF93DF931F92CDB7DEB7789484B5B1
:100FC000826084BD84B5816084BD85B5826085BD45
:100FD00085B5816085BD80916E00816080936E00D3
:100FE00010928100809181008260809381008091C5
:100FF0008100816080938100809180008160809376
:1010000080008091B10084608093B1008091B00035
:1010100081608093B00080917A00846080937A0030
:1010200080917A00826080937A0080917A008E7F2E
:1010300080937A0080917A00806880937A00109281
:10104000C10060E070E087E193E00E94000C109224
:10105000300210922F0210922E0210922D02109246
:101060002C0210922B0281E390E090933202809345
:10107000310290912102963108F057C027E030E00C
:1010800030932C0220932B022FE230E030932E027B
:1010900020932D022BE130E03093300220932F0279
:1010A00020916800983050F031E09E3008F430E034
:1010B00081E001C0880F3A95EAF701C084E0822BF5
:1010C00080936800983038F09E3040F0963148F0B8
:1010D00020E030E008C02DE630E005C02BE630E02F
:1010E00002C02CE630E03093290220932802983089
:1010F00030F481E001C0880F9A95EAF70EC0292FDD
:1011000030E09E3018F42850310902C02E503109C9
:1011100081E001C0880F2A95EAF780932A02809126
:101120003102909132020197F1F780912F02909154
:101130003002892B21F1809175019091760122E096
:1011400085319207E1F0009711F00E94FD02809135
:1011500033028E7F809333021092740110927301D8
:1011600085E192E09093760180937501E0912802E9
:10117000F0912902908180912A02892B8083E0914D
:101180008801F091890182E08083E0918401F091EF
:1011900085011082E0918601F091870189E18083C9
:1011A00010929001E0918C01F0918D0186E0808396
:1011B000E0918A01F0918B01808180618083E091D0
:1011C0008A01F0918B01808188608083E0918A019F
:1011D000F0918B01808180688083E0918A01F09199
:1011E0008B0180818F7D808361E08EE00E94C90346
:1011F000809134029091350220913602309137026D
:101200008217930719F061E00E94C90380913602AA
:101210009091370220913402309135022817390716
:1012200019F061E00E94C9031FB7F894809177011B
:10123000811127C0E7E3F2E08491EBE4F2E09491BE
:10124000E82FF0E0EE0FFF1FE852FF4FA591B49199
:10125000EC91E92321F461E08AE00E947D0361E0E2
:101260008AE00E94C9038CB580618CBD8CB5806416
:101270008CBD61E08DE00E94C90361E08BE00E94BB
:10128000C903809177018F5F809377011FBF80E052
:101290000E94D80581E00E943E0565E070E080E094
:1012A00090E00E940E046CE080E00E948B056FE5E8
:1012B00084E00E948B0582E090E00E94630788230F
:1012C00019F081E080933A0286E00E94740580E084
:1012D00090E00E9463070E945B0580E50E949204F3
:1012E00083E70E9492040E94580560E08DE10E940D
:1012F0008B0560E08CE10E948B0510923C0260E758
:1013000087E00E948B056CE485E00E948B0582EEED
:101310000E945E050E9471050E94E80580E00E941F
:101320007405682F6E7F80E00E948B0586E00E9426
:101330007405682F676086E00E948B0582E090E06C
:101340000E94630766E785E00E948B0580E00E94AB
:101350007405837F682F686080E00E948B056FEFC3
:1013600084E00E948B056FE381E00E948B0582E0A0
:1013700080933B028FEF0E945E05282F30E0982F6C
:1013800091701F929F9335952795277033273F9330
:101390002F9384FB992790F91F929F9385FB9927A0
:1013A00090F91F929F9386FB992790F91F929F9324
:1013B0001F928F9382EE90E09F938F930E944B0C2D
:1013C00042E06AE08DED91E00E94C30644E06CE0EB
:1013D00080ED91E00E94840641E060E187EC91E0BD
:1013E0000E94C30646E061E18CEB91E00E94840616
:1013F00041E061E085EB91E00E94840641E062E01B
:101400008BEA91E00E94840641E065E084EA91E085
:101410000E94840641E066E08BE991E00E94840628
:1014200041E060E083E991E00E94840642E06CE1E3
:1014300085E891E00E94840686E00E947405887227
:101440000FB6F894DEBF0FBECDBF803241F021E071
:1014500090E0883009F020E0E22FF92F02C0E2E0AE
:10146000F0E0EE0FFF1FE158FE4F859194919F939E
:101470008F938DE691E09F938F930E944B0CE091A8
:101480003A02F0E0EE0FFF1FE759FE4F859194916D
:101490009F938F938AE591E09F938F930E944B0CCB
:1014A00080E00E947405182F81E00E9474050FB639
:1014B000F894DEBF0FBECDBF13FD02C0882329F014
:1014C00012FD06C0E1E0F0E005C0E0E0F0E002C09F
:1014D000E2E0F0E0EE0FFF1FEC5AFE4F8591949191
:1014E0009F938F9381E491E09F938F930E944B0C85
:1014F00086E00E9474058670E82FF0E0E75CFE4FFE
:10150000859194919F938F9388E291E09F938F931D
:101510000E944B0C20EE30E040E050E060E070E0D4
:1015200080E090E00E944E060E94F9050FB6F89404
:10153000DEBF0FBECDBF90E2D92E03E112E0EE2454
:10154000E394F12CD98288E791E00E948801892BED
:1015500029F088E791E00E946601898385E192E0A5
:101560000E94C402892B29F085E192E00E94DC02EE
:1015700089838981803209F461C080E00E94D805A6
:1015800080914402909145020E9405048DE10E94E1
:10159000740581FF08C080914402909145020E9429
:1015A00005040E94710580E00E947405682F6E7F1B
:1015B00080E00E948B0582E00E947405F8019491FE
:1015C000970101C0220F9A95EAF7682F622B82E0FB
:1015D0000E948B05898185367CF48336E4F481365C
:1015E0005CF120EE30E040E050E060E070E080E050
:1015F00090E00E944E061CC08736F4F422EE30E0E4
:1016000040E050E060E070E080E090E00E944E0634
:10161000898184500CC021EE30E040E050E060E071
:1016200070E080E090E00E944E06898182508983BC
:10163000CE0101960E9499070E94F90562E370E0CD
:1016400080E090E00E940E040E9428027BCF8CE193
:1016500091E0909316028093150285E192E00C943C
:10166000FD0210927B0110927A0188EE93E0A0E0D7
:10167000B0E080937C0190937D01A0937E01B093B4
:101680007F012AE031E0309379012093780125EC45
:1016900030E0309385012093840124EC30E03093D6
:1016A00087012093860120EC30E03093890120935C
:1016B000880121EC30E030938B0120938A0122ECE9
:1016C00030E030938D0120938C0126EC30E0309394
:1016D0008F0120938E01109291011092920110922D
:1016E00093011092940129E030E030933502209369
:1016F00034022AE030E03093370220933602109211
:101700003A0220E220933B0210923C0225E0209313
:10171000420245E050E060E070E0409348025093A0
:10172000490260934A0270934B0210923D0210925C
:101730001802109217028093190290931A02A09334
:101740001B02B0931C028CE191E0909316028093EF
:10175000150210922C0210922B0210922E0210925F
:101760002D021092300210922F021092320210922B
:101770003102609133026E7F6D7F60933302669514
:10178000617081E0682785E00E947D0361E085E06B
:101790000E94C903E6E4F2E0E491E0932502E2E36B
:1017A000F2E0E491F0E0EE0FFF1FE75EFD4F859160
:1017B0009491909327028093260260E084E00E9437
:1017C000C9038091330281FD04C061E084E00E947E
:1017D0007D0384E080932102E5E4F2E0E491E0936C
:1017E0002202E1E3F2E0E491F0E0EE0FFF1FED5D95
:1017F000FD4F859194919093240280932302089544
:101800000F931F93CF93DF93009731F46115710508
:1018100019F480E090E03AC08B01EC016EE070E0DA
:1018200081E090E00E94430EFC01892B91F380E857
:1018300083830115110571F01387028781E8838383
:1018400080914C0290914D02892B21F4F0934D022E
:10185000E0934C022097C9F0D187C08783818260D2
:10186000838380914E0290914F02892B71F4F09303
:101870004F02E0934E028091500290915102892BC9
:1018800021F4F0935102E0935002CF01DF91CF9108
:101890001F910F910895A0E0B0E0E1E5FCE00C9409
:1018A0004D10AE01495F5F4FDA016D917D91AD0141
:1018B0000CE412E0F80182819381DC0113962C91F3
:1018C0001397286013962C930E94710CD8011296DE
:1018D000ED91FC9113972381277F2383E4E00C94FF
:1018E0006910ACE0B0E0E7E7FCE00C943F107C014D
:1018F0006B018A01FC0117821682838181FFBDC1C1
:10190000CE0101964C01F7019381F60193FD85917B
:1019100093FF81916F01882309F4ABC1853239F4BB
:1019200093FD859193FF81916F01853229F4B70171
:1019300090E00E94A90FE7CF512C312C20E02032FB
:10194000A0F48B3269F030F4803259F0833269F4BC
:1019500020612CC08D3239F0803339F4216026C0EB
:101960002260246023C0286021C027FD27C030EDFD
:10197000380F3A3078F426FF06C0FAE05F9E300D4B
:101980001124532E13C08AE0389E300D1124332EBB
:1019900020620CC08E3221F426FD6BC1206406C08B
:1019A0008C3611F4206802C0883641F4F60193FDAC
:1019B000859193FF81916F018111C1CF982F9F7DF8
:1019C0009554933028F40C5F1F4FFFE3F9830DC04B
:1019D000833631F0833771F0833509F05BC022C064
:1019E000F801808189830E5F1F4F44244394512C5A
:1019F000540115C03801F2E06F0E711CF801A0808F
:101A0000B18026FF03C0652D70E002C06FEF7FEF4D
:101A1000C5012C870E949E0F2C0183012C852F77F6
:101A2000222E17C03801F2E06F0E711CF801A08061
:101A3000B18026FF03C0652D70E002C06FEF7FEF1D
:101A4000C5012C870E948C0F2C012C852068222E2A
:101A5000830123FC1BC0832D90E048165906B0F487
:101A6000B70180E290E00E94A90F3A94F4CFF5010B
:101A700027FC859127FE81915F01B70190E00E94CC
:101A8000A90F31103A94F1E04F1A51084114510452
:101A900071F7E5C0843611F0893639F5F80127FF72
:101AA00007C060817181828193810C5F1F4F08C0E4
:101AB00060817181072E000C880B990B0E5F1F4F00
:101AC0002F76722E97FF09C090958095709561953D
:101AD0007F4F8F4F9F4F2068722E2AE030E0A40185
:101AE0000E94E10FA82EA81844C0853729F42F7E44
:101AF000B22E2AE030E025C0F22FF97FBF2E8F36BC
:101B0000C1F018F4883579F0B4C0803719F08837FF
:101B100021F0AFC02F2F2061B22EB4FE0DC08B2D4F
:101B20008460B82E09C024FF0AC09F2F9660B92E8A
:101B300006C028E030E005C020E130E002C020E12E
:101B400032E0F801B7FE07C0608171818281938124
:101B50000C5F1F4F06C06081718180E090E00E5FD6
:101B60001F4FA4010E94E10FA82EA818FB2DFF779C
:101B70007F2E76FE0BC0372D3E7FA51450F474FEE9
:101B80000AC072FC08C0372D3E7E05C0BA2C372D26
:101B900003C0BA2C01C0B52C34FF0DC0FE01EA0D04
:101BA000F11D8081803311F4397E09C032FF06C0F7
:101BB000B394B39404C0832F867809F0B39433FDB3
:101BC00013C030FF06C05A2CB31418F4530C5B1822
:101BD000B32CB31468F4B70180E290E03C870E9414
:101BE000A90FB3943C85F5CFB31410F43B1801C092
:101BF000312C34FF12C0B70180E390E03C870E9493
:101C0000A90F3C8532FF17C031FD03C088E790E083
:101C100002C088E590E0B7010CC0832F867859F0A8
:101C200031FF02C08BE201C080E237FD8DE2B701D7
:101C300090E00E94A90FA51438F4B70180E390E06A
:101C40000E94A90F5A94F7CFAA94F401EA0DF11D4E
:101C50008081B70190E00E94A90FA110F5CF332039
:101C600009F451CEB70180E290E00E94A90F3A94A6
:101C7000F6CFF7018681978102C08FEF9FEF2C96F8
:101C8000E2E10C945B100F931F93CF93DF93869F39
:101C90008001879F100D969F100D1124C8010E948E
:101CA0005F0EEC01009729F0A80160E070E00E944F
:101CB000970FCE01DF91CF911F910F910895CF9390
:101CC000DF938230910510F482E090E0E0915402BD
:101CD000F091550220E030E0C0E0D0E0309711F103
:101CE0004081518148175907C0F04817590761F4DE
:101CF00082819381209719F09B838A832BC09093D4
:101D000055028093540226C02115310519F042175F
:101D1000530718F49A01BE01DF01EF010280F3813D
:101D2000E02DDCCF2115310509F1281B390B2430BA
:101D3000310590F412968D919C9113976115710560
:101D400021F0FB019383828304C09093550280931A
:101D50005402FD01329644C0FD01E20FF31F81934E
:101D60009193225031092D933C933AC02091520215
:101D700030915302232B41F4209102013091030151
:101D800030935302209352022091000130910101BF
:101D90002115310541F42DB73EB740910401509112
:101DA0000501241B350BE0915202F0915302E2171A
:101DB000F307A0F42E1B3F0B2817390778F0AC016E
:101DC0004E5F5F4F2417350748F04E0F5F1F50934B
:101DD0005302409352028193919302C0E0E0F0E0FD
:101DE000CF01DF91CF9108950F931F93CF93DF938E
:101DF000009709F48CC0FC01329713821282009183
:101E00005402109155020115110581F42081318190
:101E1000820F931F209152023091530228173907E5
:101E200079F5F0935302E093520271C0D80140E07B
:101E300050E0AE17BF0750F412962D913C911397C6
:101E4000AD012115310509F1D901F3CF9D01DA0169
:101E50003383228360817181860F971F82179307D6
:101E600069F4EC0128813981260F371F2E5F3F4F1F
:101E7000318320838A819B8193838283452B29F43C
:101E8000F0935502E093540242C01396FC93EE93F4
:101E90001297ED01499159919E01240F351FE217C8
:101EA000F30771F480819181840F951F029611963A
:101EB0009C938E938281938113969C938E93129719
:101EC000E0E0F0E0D80112968D919C911397009775
:101ED00019F0F8018C01F6CF8D919C9198012E5F3D
:101EE0003F4F820F931F20915202309153022817C7
:101EF000390769F4309729F4109255021092540270
:101F000002C0138212821093530200935202DF9197
:101F1000CF911F910F910895FC0105906150704081
:101F20000110D8F7809590958E0F9F1F0895DC01C2
:101F300001C06D9341505040E0F70895FC0161509D
:101F4000704001900110D8F7809590958E0F9F1FDB
:101F500008950F931F93CF93DF93FB01238121FDFE
:101F600003C08FEF9FEF28C022FF16C04681578124
:101F7000248135814217530744F4A081B1819D012A
:101F80002F5F3F4F318320838C93268137812F5FD2
:101F90003F4F3783268310C0EB01092F182F008491
:101FA000F185E02D0995892BE1F68E819F810196BF
:101FB0009F838E83812F902FDF91CF911F910F915F
:101FC0000895FA01AA27283051F1203181F1E894CF
:101FD0006F936E7F6E5F7F4F8F4F9F4FAF4FB1E01C
:101FE0003ED0B4E03CD0670F781F891F9A1FA11D17
:101FF000680F791F8A1F911DA11D6A0F711D811D18
:10200000911DA11D20D009F468943F912AE0269FDC
:1020100011243019305D3193DEF6CF010895462F3B
:102020004770405D4193B3E00FD0C9F7F6CF462F1C
:102030004F70405D4A3318F0495D31FD4052419385
:1020400002D0A9F7EACFB4E0A69597958795779542
:102050006795BA95C9F700976105710508959B01C9
:10206000AC010A2E06945795479537952795BA9552
:10207000C9F7620F731F841F951FA01D08952F922B
:102080003F924F925F926F927F928F929F92AF9208
:10209000BF92CF92DF92EF92FF920F931F93CF9355
:1020A000DF93CDB7DEB7CA1BDB0B0FB6F894DEBFEC
:1020B0000FBECDBF09942A88398848885F846E8412
:1020C0007D848C849B84AA84B984C884DF80EE805C
:1020D000FD800C811B81AA81B981CE0FD11D0FB665
:1020E000F894DEBF0FBECDBFED01089597FB072E1C
:1020F00016F4009407D077FD09D00E948A1007FCDF
:1021000005D03EF4909581959F4F08957095619507
:102110007F4F0895AA1BBB1B51E107C0AA1FBB1F1D
:10212000A617B70710F0A61BB70B881F991F5A9563
:10213000A9F780959095BC01CD010895EE0FFF1F82
:102140000590F491E02D099481E090E0F8940C94CE
:10215000A91011E0CCE2D1E004C0FE010E949E1063
:0C2160002196CD32D107C9F7F894FFCFCB
:10216C0000005602800000000000BF01130557015B
:10217C000602880166017A01000000007002130556
:0A218C0014036F02C402DC025702C4
:00000001FF
