:100000000C9472010C949A010C949A010C949A012C
:100010000C949A010C949A010C949A010C949A01F4
:100020000C949A010C949A010C94BF120C948D11AB
:100030000C949A010C949A010C949A010C949A01D4
:100040000C949A010C949A010C949A010C949A01C4
:100050000C949A010C949A010C949A010C94EE0B56
:100060000C949A010C949A010C949A010C949A01A4
:100070000C949A010C949A010C949A010C949A0194
:100080000C949A010C949A010C949A010C949A0184
:100090000C94C10A0C949A010C949A010C949A0144
:1000A0000C949A010C949A010C949A01FD0C000D89
:1000B000EF0CF30CF90C210D210D210D040D080D91
:1000C0000C0D120D160D210D1C0D53656E64206173
:1000D0006E792063686172616374657220746F2049
:1000E000737461727420736B657463682E0A000008
:1000F00000000200090F0000030401000C000000D2
:1001000000000000000000000000000000040802E1
:10011000011040804010204080408008020401808F
:100120004020100201108010204040040404040408
:10013000030405020202020403020202020606068A
:10014000060606040402020204000000002500283E
:10015000002B002E003100080B00020202010009F2
:100160000400000102020000052400100105240122
:10017000010104240206052406000107058103107D
:10018000004009040100020A0000000705020240C5
:1001900000000705830240000000C18081C11201F8
:1001A00000020200004041234180000101020001E1
:1001B00012010002000000404123418000010102C1
:1001C000000141726475696E6F204C4C43004172AE
:1001D0006475696E6F2059756E0004030904000090
:1001E0000000000000002A2B280000000000000092
:1001F00000000000000000000000000000002C9E35
:10020000B4A0A1A2A434A6A7A5AE362D3738271EC8
:100210001F20212223242526B333B62EB7B89F846E
:1002200085868788898A8B8C8D8E8F909192939406
:1002300095969798999A9B9C9D2F3130A3AD350444
:1002400005060708090A0B0C0D0E0F1011121314E6
:1002500015161718191A1B1C1DAFB1B0B5000904EB
:1002600002000103000000092101010001226500D4
:100270000705840340000105010902A1010901A14C
:10028000008501050919012903150025019503754C
:1002900001810295017505810305010930093109C4
:1002A000381581257F750895038106C0C0050109B1
:1002B00006A1018502050719E029E715002501754A
:1002C0000195088102950175088103950675081549
:1002D0000025650507190029658100C08505DF092E
:1002E0001B0E6A1411241FBECFEFDAE0DEBFCDBFB4
:1002F00013E0A0E0B1E0E0EDF9E202C005900D925C
:10030000A23BB107D9F725E0A2EBB3E001C01D92F3
:10031000A631B207E1F712E0C4EED2E004C02297A2
:10032000FE010E94CE14CC3DD107C9F70E94390EC0
:100330000C94E6140C9400004F925F926F927F929F
:100340008F929F92AF92BF92CF92DF92EF92FF92E5
:100350000F931F93CF93DF93CDB7DEB764970FB69C
:10036000F894DEBF0FBECDBF412C512C3201198A4B
:100370001A8A1B8A1C8A1D861E861F86188A198661
:100380001A861B861C861D821E821F821886198271
:100390001A821B821C82812C912C540180910A01AB
:1003A00090910B018B599F4FAA2797FDA095BA2FCB
:1003B00088169906AA06BB060CF002C18CECC82E62
:1003C00083E0D82E9EECE92E93E0F92E00ED13E0A9
:1003D00022ED33E044ED53E066ED73E088ED93E009
:1003E0000E94380825E682169104A104B1040CF499
:1003F00080C080910A0190910B018C599F4FAA27D0
:1004000097FDA095BA2F88159905AA05BB050CF490
:1004100070C08091D6039091D703AA2797FDA0952D
:10042000BA2F29813A814B815C81280F391F4A1FDD
:100430005B1F29833A834B835C838091D403909123
:10044000D503AA2797FDA095BA2F2D813E814F8114
:100450005885280F391F4A1F5B1F2D833E834F830A
:1004600058878091D2039091D303AA2797FDA09536
:10047000BA2F29853A854B855C85280F391F4A1F7D
:100480005B1F29873A874B875C878091D0039091C7
:10049000D103AA2797FDA095BA2F2D853E854F85BC
:1004A0005889280F391F4A1F5B1F2D873E874F87AA
:1004B000588B8091CE039091CF03AA2797FDA095EA
:1004C000BA2F29893A894B895C89280F391F4A1F1D
:1004D0005B1F298B3A8B4B8B5C8B8091CC0390916B
:1004E000CD03AA2797FDA095BA2F480E591E6A1E64
:1004F0007B1EC0900A01D0900B01C6018C599F4F02
:10050000AA2797FDA095BA2F88169906AA06BB06BA
:1005100009F04AC0EE24D7FCE094FE2C69817A8170
:100520008B819C81A70196010E94AD143093CB036F
:100530002093CA036D817E818F819885A7019601E2
:100540000E94AD143093C9032093C80369857A854E
:100550008B859C85A70196010E94AD143093C7033B
:100560002093C6036D857E858F859889A7019601A6
:100570000E94AD143093C5032093C40369897A891E
:100580008B899C89A70196010E94AD143093C30307
:100590002093C203C301B201A70196010E94AD14CA
:1005A0003093C1032093C0033FEF831A930AA30A39
:1005B000B30A62E070E080E090E00E94670CEECE4B
:1005C00064960FB6F894DEBF0FBECDBFDF91CF911A
:1005D0001F910F91FF90EF90DF90CF90BF90AF9061
:1005E0009F908F907F906F905F904F900895CF93E2
:1005F000DF938091CA039091CB0397FD079673E038
:10060000959587957A95E1F79195819591099093C4
:10061000BD038093BC038091C8039091C90397FDEB
:10062000079663E0959587956A95E1F79195819591
:1006300091099093BB038093BA0380E090E42091EA
:10064000C6033091C703821B930B97FD079653E0B7
:10065000959587955A95E1F79093B9038093B803E0
:100660008091C4039091C50397FD03969595879556
:10067000959587959195819591099093B70380936E
:10068000B6038091C2039091C30397FD039695959D
:100690008795959587959195819591099093B50347
:1006A0008093B4038091C0039091C10397FD03969A
:1006B00095958795959587959195819591099093B5
:1006C000B3038093B203C0E0D0E46091BC037091A7
:1006D000BD0388ED93E00E94EA086091BA0370912F
:1006E000BB0388ED93E00E94F0086091B80370911D
:1006F000B90388ED93E00E94F6086091B60370910B
:10070000B70388ED93E00E94FC086091B4037091F8
:10071000B50388ED93E00E9402096091B2037091E5
:10072000B30388ED93E00E9408090E949C0167E3EF
:1007300071E080EB94E00E94CE0E8091CA0390910C
:10074000CB03E0910801F09109019C0197FF04C0DF
:1007500022273327281B390BE217F30784F4BF0144
:100760000E9477148091BC039091BD03861B970B68
:100770009093BD038093BC0320E030E002C021E0F1
:1007800030E08091C8039091C903AC0197FF04C089
:1007900044275527481B590BE417F5071CF02F5F1A
:1007A0003F4F0DC0BF010E9477148091BA03909112
:1007B000BB03861B970B9093BB038093BA034091B6
:1007C000C6035091C703CE01841B950B181619065A
:1007D00014F0505401C0AC01E417F5071CF02F5F72
:1007E0003F4F0DC0BF010E9477148091B8039091D4
:1007F000B903860F971F9093B9038093B803809134
:10080000C4039091C503E0910601F0910701AC018A
:1008100097FF04C044275527481B590BE417F507D9
:100820001CF02F5F3F4F0FC0BF01609570950E9475
:1008300077148091B6039091B703860F971F90931A
:10084000B7038093B6038091C2039091C303AC01B8
:1008500097FF04C044275527481B590BE417F50799
:100860001CF02F5F3F4F0FC0BF01609570950E9435
:1008700077148091B4039091B503860F971F9093DE
:10088000B5038093B4038091C0039091C103AC0180
:1008900097FF04C044275527481B590BE417F50759
:1008A0003CF02530310509F010CFDF91CF9108954C
:1008B000BF01609570950E9477148091B20390916A
:1008C000B303860F971F9093B3038093B203FDCEBB
:1008D0008091BE039091BF03892BB9F468E171E068
:1008E00080EB94E00E94CE0E0E949C018091BE039A
:1008F0009091BF0301969093BF038093BE0368EE6F
:1009000073E080E090E00E94670C8091BE039091BC
:10091000BF030197B9F46BE371E080EB94E00E94B0
:10092000CE0E0E94F7028091BE039091BF03019604
:100930009093BF038093BE0368EE73E080E090E085
:100940000E94670C8091BE039091BF03029709F04B
:10095000DBC00E949C0163E571E080EB94E00E94A3
:10096000CE0E6EE571E080EB94E00E94AF0E6091D8
:10097000CA037091CB034AE050E080EB94E00E9400
:10098000830F6CE771E080EB94E00E94AF0E609102
:10099000C8037091C9034AE050E080EB94E00E94E4
:1009A000830F6CE771E080EB94E00E94AF0E6091E2
:1009B000C6037091C7034AE050E080EB94E00E94C8
:1009C000830F6CE771E080EB94E00E94AF0E6091C2
:1009D000C4037091C5034AE050E080EB94E00E94AC
:1009E000830F6CE771E080EB94E00E94AF0E6091A2
:1009F000C2037091C3034AE050E080EB94E00E9490
:100A0000830F6CE771E080EB94E00E94AF0E609181
:100A1000C0037091C1034AE050E080EB94E00E9473
:100A20008B0F6EE771E080EB94E00E94AF0E609157
:100A3000BC037091BD034AE050E080EB94E00E945B
:100A4000830F6CE771E080EB94E00E94AF0E609141
:100A5000BA037091BB034AE050E080EB94E00E943F
:100A6000830F6CE771E080EB94E00E94AF0E609121
:100A7000B8037091B9034AE050E080EB94E00E9423
:100A8000830F6CE771E080EB94E00E94AF0E609101
:100A9000B6037091B7034AE050E080EB94E00E9407
:100AA000830F6CE771E080EB94E00E94AF0E6091E1
:100AB000B4037091B5034AE050E080EB94E00E94EB
:100AC000830F6CE771E080EB94E00E94AF0E6091C1
:100AD000B2037091B3034AE050E080EB94E00E94CF
:100AE0008B0F6DE871E080EB94E00E94CE0E66EC17
:100AF00071E080EB94E00E94CE0E63E072E080EB48
:100B000094E00E94CE0EFFCF089568E688ED93E052
:100B10000C941F0887EE93E00E94A50988E180935A
:100B2000B80040E052EC61E070E080EB94E00E949D
:100B3000150E88ED93E00E94B20880EB94E00E94CD
:100B4000820D892B31F080EB94E00E94920D892B6D
:100B5000A1F780EB94E00E94820D892B99F46AEC56
:100B600070E080EB94E00E94BC0E6CED75E080E0DC
:100B700090E00E94670CEDCF80EB94E00E94920D14
:100B8000892B31F080EB94E00E94820D892BA1F734
:100B900060ED72E080EB94E00E94CE0E60ED77E0B5
:100BA00080E090E00E94670C6CEE72E080EB94E0D5
:100BB0000E94CE0E68EB7BE080E090E00E94670C24
:100BC00088ED93E00E94E208811130C066EB72E08C
:100BD00080EB94E00E94CE0E68EE73E080E090E03F
:100BE0000E94670C60E070E088ED93E00E94EA08E4
:100BF00060E070E088ED93E00E94F00860E070E053
:100C000088ED93E00E94F60860E070E088ED93E0E4
:100C10000E94FC0860E070E088ED93E00E94020909
:100C200060E070E088ED93E00C94080968E972E0F8
:100C3000CFCFEF92FF920F931F93CF93DF9300D00C
:100C4000CDB7DEB7062F142F682F87EE93E02983E8
:100C50003A830E94BF09602F87EE93E00E946609E5
:100C60002981022FE22E3A81F32E8E2D801B8117CF
:100C700040F4F70161917F0187EE93E00E946609DD
:100C8000F4CF87EE93E00E94DC0991E0811190E0BF
:100C9000892F0F900F90DF91CF911F910F91FF90AF
:100CA000EF900895CF93DF931F92CDB7DEB74983BE
:100CB0009E012F5F3F4F41E00E9419060F90DF9188
:100CC000CF910895DF92EF92FF920F931F93CF93EE
:100CD000DF93C62F042F7901682F87EE93E00E94DF
:100CE000BF096C2F87EE93E00E94660910E0000FA9
:100CF000111FD12CCD2DD0E0C017D1078CF4CC0F13
:100D0000DD1FCE0DDF1D698187EE93E00E9466092D
:100D1000688187EE93E00E946609D394D394EACF6A
:100D200087EE93E00E94DC0991E0811190E0892F29
:100D3000DF91CF911F910F91FF90EF90DF90089579
:100D4000CF93DF9300D0CDB7DEB75A8349839E019E
:100D50002F5F3F4F41E00E9462060F900F90DF919E
:100D6000CF9108953F924F925F926F927F928F92B0
:100D70009F92AF92BF92CF92DF92EF92FF920F932A
:100D80001F93CF93DF9300D000D000D0CDB7DEB754
:100D9000682E562E742E3A8329830E94380C6B01DC
:100DA0007C01312C412C872D90E09C838B83480162
:100DB000A12CB12C3714B0F5662D87EE93E00E947C
:100DC000BF09652D87EE93E00E94660987EE93E0E8
:100DD0000E94DC09662D87EE93E00E94BF094B81DB
:100DE0005C81431951094132510514F040E250E051
:100DF000662D87EE93E00E94BC0987EE93E00E9487
:100E00000E09892B59F10115110579F10E94380C51
:100E10006C197D098E099F09681579058A059B055E
:100E200020F11CC00115110589F10E94380C6C19C4
:100E30007D098E099F0920E030E060177107820765
:100E4000930720F1872D90E0242D332727FD30953F
:100E500028173907DCF444244A9418C0872D90E2FF
:100E6000971508F480E2380EA5CFE981FA81E40DE8
:100E7000F11D47FCFA95FE83ED8387EE93E00E9417
:100E80001609ED81FE8180834394B7CF842D269689
:100E90000FB6F894DEBF0FBECDBFDF91CF911F918B
:100EA0000F91FF90EF90DF90CF90BF90AF909F9009
:100EB0008F907F906F905F904F903F9008950F9329
:100EC0001F9389019A0141E00E94B2061F910F9180
:100ED0000895CF92DF92EF92FF920F931F93CF93DB
:100EE000DF931F92CDB7DEB7C42ED22E9701AE018D
:100EF0004F5F5F4F0E945F078823F1F04C2D50E059
:100F00004D1951094F5F5F4F61E070E002C0660FFD
:100F1000771FDA94E2F761507109042E01C0660F61
:100F20000A94EAF72981262330E002C035952795F7
:100F30004A95E2F7F80120830F90DF91CF911F913E
:100F40000F91FF90EF90DF90CF900895EF92FF9276
:100F50000F931F93CF93DF931F92CDB7DEB7182F58
:100F6000062FF42EE22E20910C0130910D01AE01DE
:100F70004F5F5F4F0E945F07898121E030E00F2CB7
:100F800001C0220F0A94EAF7EE2019F0482F422BF5
:100F900003C0422F409548234983602F812F0E9430
:100FA00052060F90DF91CF911F910F91FF90EF901C
:100FB0000895DF92EF92FF920F931F93CF93DF93E9
:100FC0001F92CDB7DEB7F82EE62ED42E122F209129
:100FD0000C0130910D01AE014F5F5F4F0E945F0722
:100FE000882319F14D2D50E0411B51094F5F5F4F90
:100FF000E1E0F0E002C0EE0FFF1F1A95E2F7319733
:10100000042E01C0EE0F0A94EAF701C0000F4A95C2
:10101000EAF74E2F409589814823E0234E2B4983E0
:101020006E2D8F2D0E94520601C080E00F90DF913F
:10103000CF911F910F91FF90EF90DF900895FC01E9
:10104000608308950F93062F22E044E06BE1FC01DA
:1010500080810E94D9070F9108950F93062F22E0F7
:1010600044E06CE1FC0180810E94D9070F91089552
:101070004F925F926F927F928F929F92AF92BF92A8
:10108000CF92DF92EF92FF920F931F93CF93DF9354
:10109000EC015B013A014901280100910C0110911A
:1010A0000D019C012F5F3F4F4EE06BE388810E9452
:1010B000B206898190E0982F88272A81822BF5013A
:1010C000918380838B8190E0982F88272C81822BBD
:1010D000F301918380838D8190E0982F88272E8162
:1010E000822BF40191838083898590E0982F882753
:1010F0002A85822BF201918380838B8590E0982F43
:1011000088272C85822BF701918380838D8590E041
:10111000982F88272E85822BF60191838083DF917B
:10112000CF911F910F91FF90EF90DF90CF90BF90E4
:10113000AF909F908F907F906F905F904F900895A9
:10114000262F46E06BE6FC0180810C94A6070F93E6
:10115000062F23E042E06BE6FC0180810E94D90764
:101160000F910895CF93DF93EC0161E00E94A708EF
:1011700060E0CE010E94220860E0CE010E942D08AE
:1011800060E0CE01DF91CF910C94A008EF92FF9226
:101190000F931F93CF93DF93EC01E0900C01F0903D
:1011A0000D018C010F5F1F4F26E046E065E7888147
:1011B0000E9469078981DF91CF911F910F91FF9064
:1011C000EF9008950E94C60891E0843309F090E002
:1011D000892F0895AB0166E0FC0180810C94A00684
:1011E000AB0168E0FC0180810C94A006AB016AE0D1
:1011F000FC0180810C94A006AB0163E1FC018081BD
:101200000C94A006AB0165E1FC0180810C94A00662
:10121000AB0167E1FC0180810C94A006809117046A
:1012200090E020911804821B9109089520911804E0
:1012300080911704281750F4E22FF0E0E75EFB4F8F
:10124000808190E02F5F2093180408958FEF9FEF27
:101250000895E091180480911704E81730F4F0E045
:10126000E75EFB4F808190E008958FEF9FEF089538
:101270000895CF92DF92EF92FF920F931F93CF9337
:10128000DF937C01CB018A012091F303222389F0B3
:10129000EB016B01C40ED51ECC15DD0569F069911B
:1012A000D701ED91FC910190F081E02DC7010995E6
:1012B000F3CF642F0E94980AC801DF91CF911F914C
:1012C0000F91FF90EF90DF90CF900895CF93DF9331
:1012D0001F92CDB7DEB769832091F3032223D1F0AB
:1012E0002091F403203240F021E030E0FC01338310
:1012F000228380E090E015C08091F503E82FF0E0B4
:10130000EA50FC4F998190838F5F8093F50380931F
:10131000F40305C061E0CE0101960E94980A81E0C5
:1013200090E00F90DF91CF910895FC01138212821B
:1013300048EE53E060E070E0448355836683778332
:1013400088E793E0918380830895109218041092A7
:1013500017041092F5031092F4030C94E309862FFE
:10136000413208F040E269E174E00E94010A109203
:10137000180480931704089521E00C94AF0981E0CC
:101380008093F303609316041092F5031092F40314
:1013900008950F93062F21E04091F40366EF73E068
:1013A000809116040E94450A1092F5031092F403EE
:1013B0001092F3030F91089561E00C94C90987EE30
:1013C00093E00C9495091092A60481E08093A40404
:1013D0001092A30461E082E00E94220D61E083E0AC
:1013E0000E94220DE9EBF0E080818E7F8083808176
:1013F0008D7F808388E48093B80085E48093BC006F
:101400000895413208F03FC09091A6049111FCCF9D
:1014100091E09093A6042093A4042FEF2093390425
:1014200010927E04240F20937D049093A504909144
:10143000A504880F892B8093A5048091A304813093
:1014400041F41092A3048091A5048093BB0085EC25
:1014500001C085EE8093BC008091A6048130E1F349
:1014600080917E04841710F440917E042FE734E0CD
:10147000FB01D9018A2F821B841718F48D91819367
:10148000F9CF842F089580E008950F93413208F03A
:1014900046C09091A6049111FCCF92E09093A604CF
:1014A0000093A4049FEF9093390410927E0440931C
:1014B0007D04FB016FE774E0DB019A2F961B941704
:1014C00018F491919D93F9CF1092A5049091A504E1
:1014D000880F892B8093A5048091A304813041F467
:1014E0001092A3048091A5048093BB0085EC01C0F9
:1014F00085EE8093BC00222321F08091A6048230E7
:10150000E1F3809139048F3F61F08091390480329A
:1015100051F080913904803341F483E007C081E0C9
:1015200005C080E003C082E001C084E00F9108950F
:10153000613298F42091A604243089F460935B040E
:10154000FC018DE594E0DC012A2F281B261718F4F6
:1015500021912D93F9CF80E0089581E0089582E0F4
:10156000089585ED8093BC008091BC0084FDFCCF84
:101570001092A604089585EC8093BC001092A604F6
:1015800008951F920F920FB60F9211242F933F933D
:101590004F935F936F937F938F939F93AF93BF937B
:1015A000EF93FF938091B900887F803609F49CC047
:1015B00068F5883209F45BC090F4803109F454C0B6
:1015C00038F4882309F4F5C0883009F44DC0F5C01B
:1015D000883109F44CC0803209F45DC0EEC080341B
:1015E00009F468C048F4803309F455C0883309F021
:1015F000E4C080933904A8C0803509F44FC0883511
:1016000009F45DC0883409F0D8C0D5C0883909F420
:10161000C6C0A8F4883709F467C038F4883609F4DE
:1016200063C0803709F460C0C8C0883809F4B7C007
:10163000803909F45FC0803809F0BFC05BC0803BCF
:1016400009F485C038F4803A09F466C0883A09F490
:101650007EC0B3C0803C09F4A6C0883C09F4A3C096
:10166000883B09F489C0A9C08091A50410C090915D
:101670007E0480917D04981770F5E0917E0481E0EE
:101680008E0F80937E04F0E0E158FB4F80818093C1
:10169000BB0085EC85C0809339048DC0E0917E0449
:1016A00081E08E0F80937E048091BB00F0E0E158D2
:1016B000FB4F808390917E0480917D046DC0E0910A
:1016C0007E0481E08E0F80937E048091BB00F0E069
:1016D000E158FB4F80838091A40481116CC081E0AC
:1016E0008093A30484EA60C083E08093A6041092F0
:1016F0003A04CFCF80913A04803208F050C0E09194
:101700003A0481E08E0F80933A048091BB00F0E0B0
:10171000E55CFB4F8083BDCF80913A04803230F48A
:10172000E0913A04F0E0E55CFB4F10820E94B10AC0
:1017300060913A0470E0E0919F04F091A0048BE383
:1017400094E0099510923A040E94BB0A36C084E0E6
:101750008093A60410925C0410925B04E091A104B3
:10176000F091A204099580915B04811105C081E08C
:1017700080935B0410925D04E0915C0481E08E0F25
:1017800080935C04F0E0E35AFB4F80818093BB00C0
:1017900090915C0480915B04981708F47ACF85E8F7
:1017A0008093BC000AC085EC8093BC001092A60414
:1017B00004C0109239040E94B10AFF91EF91BF91C9
:1017C000AF919F918F917F916F915F914F913F91D9
:1017D0002F910F900FBE0F901F9018951F920F9290
:1017E0000FB60F9211242F933F938F939F93AF9334
:1017F000BF938091A8049091A904A091AA04B091EC
:10180000AB043091A70423E0230F2D3720F4019679
:10181000A11DB11D05C026E8230F0296A11DB11D13
:101820002093A7048093A8049093A904A093AA04EA
:10183000B093AB048091AC049091AD04A091AE0440
:10184000B091AF040196A11DB11D8093AC0490939B
:10185000AD04A093AE04B093AF04BF91AF919F913C
:101860008F913F912F910F900FBE0F901F90189561
:101870002FB7F8946091A8047091A9048091AA04EC
:101880009091AB042FBF08953FB7F8948091AC04BA
:101890009091AD04A091AE04B091AF0426B5A89B81
:1018A00005C02F3F19F00196A11DB11D3FBF66274E
:1018B000782F892F9A2F620F711D811D911D42E093
:1018C000660F771F881F991F4A95D1F70895CF9209
:1018D000DF92EF92FF92CF93DF936B017C010E9426
:1018E000440CEB01C114D104E104F10489F00E941D
:1018F00033130E94440C6C1B7D0B683E734090F3C5
:1019000081E0C81AD108E108F108C851DC4FEACFDC
:10191000DF91CF91FF90EF90DF90CF900895789472
:1019200084B5826084BD84B5816084BD85B58260E4
:1019300085BD85B5816085BDEEE6F0E08081816082
:101940008083E1E8F0E01082808182608083808182
:1019500081608083E0E8F0E0808181608083E1E95C
:10196000F0E0808182608083808181608083E0E913
:10197000F0E0808181608083E1ECF0E08081846030
:101980008083808182608083808181608083E3ECBA
:10199000F0E0808181608083E0ECF0E08081826013
:1019A0008083E2ECF0E0808181608083EAE7F0E010
:1019B0008081846080838081826080838081816077
:1019C0008083808180688083089590E0FC01319756
:1019D000EF30F105B0F5EA5AFF4F0C94CC1480912A
:1019E00080008F7703C0809180008F7D809380007E
:1019F000089580918000877FF9CF84B58F7702C0EA
:101A000084B58F7D84BD0895809190008F7707C045
:101A1000809190008F7D03C080919000877F80939C
:101A2000900008958091C0008F7703C08091C0001E
:101A30008F7D8093C00008958091C200877F80933E
:101A4000C20008950F931F93CF93DF931F92CDB7DA
:101A5000DEB7282F30E0F901E151FF4F8491F90101
:101A6000E35FFE4F1491F901E55DFE4F0491002301
:101A7000C9F0882321F069830E94E50C6981E02F79
:101A8000F0E0EE0FFF1FE75BFE4FA591B4919FB70B
:101A9000F8948C91611103C01095812301C0812BB2
:101AA0008C939FBF0F90DF91CF911F910F9108955D
:101AB000CF93DF931F92CDB7DEB76983DC01ED9141
:101AC000FC910280F381E02D41E050E0BE016F5FA8
:101AD0007F4F09950F90DF91CF910895CF93DF93BA
:101AE000EC018C859D8597FF05C082E00E94621005
:101AF0009D878C878C859D85DF91CF91089583E0AC
:101B00000C94B512FC018485958597FD06C082E092
:101B10000E940A1090E00196089582E00E940A1047
:101B200090E00895FC018485958597FD05C02FEF11
:101B30003FEF35872487089582E00C946210CF939D
:101B4000DF93EC0180911501882331F083E00E943E
:101B500093101816190634F081E090E09B838A8375
:101B600080E090E0DF91CF910895FC0120812E5F0D
:101B7000208342E450E067E571E080E80C942E1188
:101B8000FC0181819081913A59F4813209F03CC085
:101B900047E050E06EE071E080E00E942E1143C00B
:101BA000913291F5803239F467E070E08EE091E097
:101BB0000E945F1106C0823209F035C08281809395
:101BC000150180910E0190910F01A0911001B0912B
:101BD0001101803B9440A105B105C1F4809115012C
:101BE00080FD14C087E797E7909301088093000871
:101BF0002BE088E190E00FB6F894A8958093600000
:101C00000FBE209360000FC080E0089588E10FB6FA
:101C1000F89480936000109260000FBEA895109217
:101C200001081092000881E008952FEF3FEFFC01BA
:101C30003587248708951092B3041092B20488EE79
:101C400093E0A0E0B0E08093B4049093B504A09337
:101C5000B604B093B70488E893E09093B1048093FE
:101C6000B0048FEF9FEF9093BD048093BC04089560
:101C700008950E948F0C0E94380E80E095E00E942B
:101C800015130E948A05C0E0D0E00E9468042097E6
:101C9000E1F30E940000F9CFCF92DF92EF92FF9222
:101CA0000F931F93CF93DF936C017A01EB01E60E44
:101CB000F71E00E010E0CE15DF0561F06991D60156
:101CC000ED91FC910190F081E02DC6010995080F7E
:101CD000191FF1CFC801DF91CF911F910F91FF9094
:101CE000EF90DF90CF9008956115710581F0DB01D1
:101CF0000D900020E9F7AD0141505109461B570BEB
:101D0000DC01ED91FC910280F381E02D099480E0EB
:101D100090E00895EF92FF920F931F93CF93DF937C
:101D20008C01FB01C0E0D0E064917F018FEFE81AE5
:101D3000F80A662361F0D801ED91FC910190F081E1
:101D4000E02DC8010995C80FD91FF701EDCFCE01CD
:101D5000DF91CF911F910F91FF90EF9008950C9418
:101D6000740EDC01ED91FC910190F081E02D09945D
:101D700064E973E00C94740E0F931F93CF93DF9379
:101D8000EC010E948A0E8C01CE010E94B80E800FD9
:101D9000911FDF91CF911F910F9108950F931F9382
:101DA000CF93DF93EC010E94740E8C01CE010E9450
:101DB000B80E800F911FDF91CF911F910F91089561
:101DC0008F929F92AF92BF92CF92DF92EF92FF924B
:101DD0000F931F93CF93DF93CDB7DEB7A1970FB6C5
:101DE000F894DEBF0FBECDBF7C01C42EE52FCB0122
:101DF000D22E19A221E02D1510F02AE0D22E8E014C
:101E00000F5D1F4F8D2C912CA12CB12C6C2D7E2F92
:101E1000A50194010E948B148C2DD29E801911244F
:101E2000015011098A3014F4805D01C0895CF80109
:101E30008083211531054105510521F0C22EE32F84
:101E4000CA01E4CFB801C7010E94740EA1960FB673
:101E5000F894DEBF0FBECDBFDF91CF911F910F91E0
:101E6000FF90EF90DF90CF90BF90AF909F908F90BA
:101E70000895CF92DF92EF92FF920F931F93CF932B
:101E8000DF93EC016A017B012115310579F4E881CA
:101E9000F9810190F081E02D642FDF91CF911F91A6
:101EA0000F91FF90EF90DF90CF9009942A30310589
:101EB000E9F477FF1AC06DE20E94B10E8C0144274D
:101EC0005527BA014C195D096E097F092AE0CE0138
:101ED0000E94E00E800F911FDF91CF911F910F9113
:101EE000FF90EF90DF90CF9008952AE0B701A60110
:101EF000CE01DF91CF911F910F91FF90EF90DF9076
:101F0000CF900C94E00E9A01AB01662757FD6095C7
:101F1000762F0C94390F0F931F93CF93DF93EC011F
:101F20009A01AB01662757FD6095762F0E94390F05
:101F30008C01CE010E94B80E800F911FDF91CF91CE
:101F40001F910F910895409104055091050520912E
:101F500002053091030542175307B4F49091E8004D
:101F60009570E1F39091E80092FD19C08093F10023
:101F7000809104059091050501968F739927892B0F
:101F800019F48EEF8093E800809104059091050587
:101F90000196909305058093040581E0089580E003
:101FA0000895FF920F931F93CF93DF938C0188E1E5
:101FB0000E94A30F83E00E94A30FC0E0D0E0F801CD
:101FC000EC0FFD1F84910E94A30FF82E80E00E9469
:101FD000A30F8F2121F02196CB30D10581F7DF911E
:101FE000CF911F910F91FF900895615030F0209193
:101FF000F100FC0120830196F8CF289884E68093B5
:10200000070508952FB7FC012083F894677060934B
:10201000E9000895CF93DF931F92CDB7DEB7682F05
:10202000CE0101960E9402108091F20099819FBF1B
:102030000F90DF91CF910895FF920F931F93CF934D
:10204000DF9300D0CDB7DEB7F62E8A01909106055A
:10205000992311F057FF03C08FEF9FEF2BC0682F1C
:10206000CE0101967A830E9402108091F20090E0E6
:10207000A8017A81801791070CF4AC01EF2DF72F9E
:10208000F40E84E6FE1639F02898809307059091A7
:10209000F1009193F7CF4115510521F08091F200A5
:1020A000882321F089818FBFCA0104C08BE6809309
:1020B000E800F8CF0F900F90DF91CF911F910F9113
:1020C000FF900895CF93DF931F92CDB7DEB741E025
:1020D00050E0BE016F5F7F4F0E941C10019719F402
:1020E000898190E002C08FEF9FEF0F90DF91CF9139
:1020F0000895CF93DF931F92CDB7DEB7682FCE013F
:1021000001960E9402109091E800892F807295FF3D
:1021100004C09091F20080E4891B99819FBF0F90C9
:10212000DF91CF9108956F927F928F929F92AF929D
:10213000BF92CF92DF92EF92FF920F931F93CF93B4
:10214000DF931F92CDB7DEB7782E7B01C42EB52E5C
:1021500080910605882369F0042F152F8AEFD82E69
:10216000872D8072982E9AE3A92E872D8074882E51
:1021700011C08FEF9FEF57C0872D0E947910682EF6
:1021800081110CC0DA94A9F361E070E080E090E086
:102190000E94670C0115110579F73BC0282F30E02C
:1021A000021713070CF4602E672DCE0101960E94D2
:1021B00002108091E80085FF29C0262D30E0021B27
:1021C000130B992039F06A948FEF6816B1F01092D2
:1021D000F100F9CFF701862D77FE07C0815058F046
:1021E00094919093F1003196F9CF815020F0919124
:1021F0009093F100FACFE20EF31E8091E80085FF84
:102200000FC00115110511F481100AC089818FBF1B
:10221000C1CF5D9884E6809308058C2D9B2D03C06B
:10222000A092E800F3CF0F90DF91CF911F910F9113
:10223000FF90EF90DF90CF90BF90AF909F908F90E6
:102240007F906F9008951092E9001092050510920A
:10225000040590930305809302050895CF92DF92C1
:10226000FF920F931F93CF93DF9300D0CDB7DEB7CC
:10227000F82E8A016B0101151105B1F0F601F7FE88
:1022800002C0849101C0808149835A830E94A30FB8
:1022900001501109FFEFCF1ADF0A49815A818111DC
:1022A000EACF8FEF9FEF01C0CA010F900F90DF912F
:1022B000CF911F910F91FF90DF90CF9008951F93C2
:1022C000CF93DF931F92CDB7DEB7162F2091E80092
:1022D00022FFFCCF612F79830E94F50F8BEF809353
:1022E000E800812F7981972F0F90DF91CF911F9177
:1022F0000895CF93DF931F92CDB7DEB71982CE0139
:1023000001960E94B50DCE0101960E94521389815B
:1023100090E00F90DF91CF9108951F920F920FB62A
:102320000F921124EF92FF920F931F932F933F93DD
:102330004F935F936F937F938F939F93AF93BF93CD
:10234000EF93FF93CF93DF93CDB7DEB76297DEBFF6
:10235000CDBF1092E9008091E80083FFE9C068E0FA
:10236000CE010A960E94F50F82EF8093E8009A85CD
:1023700097FF05C08091E80080FFFCCF03C08EEF7F
:102380008093E800892F807609F0B7C08B85811192
:1023900005C01092F1001092F100C3C0282F2D7FCC
:1023A000213009F4BEC0853049F48091E80080FFF7
:1023B000FCCF8C8580688093E300B3C0863009F041
:1023C00074C02D85E888F988223071F580E090E0AE
:1023D0002A8B0E9423110E94791199E08E010F5FD0
:1023E0001F4FF801392F11923A95E9F799832A89FD
:1023F0002A8391E09E8390E898879AEF99872091AD
:10240000040530910505275F3F4F3C832B838D8367
:10241000C7010E94231149E050E0B80180E00E940A
:102420002E110E9479117DC0C7012A8B0E942311B1
:102430002A89223241F482E290E00E945D13892BC6
:1024400009F06FC072C0213069F4888999890897B2
:1024500011F42093010580910105811116C060EBF4
:1024600071E018C0233009F060C08C85882381F0AA
:10247000823019F48EEC91E005C0813009F055C02E
:1024800082EC91E00E94D10F4AC06EE971E002C077
:102490006AED71E06115710509F447C0FB014491D3
:1024A00050E080E80E942E113CC0873009F43DC006
:1024B000883021F481E08093F10033C0893089F5C0
:1024C000937099F5EAE9F1E081E021E096E38093E9
:1024D000E9002093EB0034913093EC009093ED00F1
:1024E0008F5F3196853099F78EE78093EA001092DE
:1024F000EA008C858093060514C0888999890E941A
:1025000023118E85811105C0CE010A960E94C00D4F
:1025100006C0823051F4CE010A960E9485138823AA
:1025200021F08EEF8093E80003C081E28093EB00FE
:1025300062960FB6F894DEBF0FBECDBFDF91CF918C
:10254000FF91EF91BF91AF919F918F917F916F918B
:102550005F914F913F912F911F910F91FF90EF90BD
:102560000F900FBE0F901F9018958093E9008091F7
:10257000F200882319F08AE38093E80008951F92FF
:102580000F920FB60F9211242F933F934F935F93A7
:102590006F937F938F939F93AF93BF93EF93FF932B
:1025A0008091E1001092E10083FF0FC01092E900DA
:1025B00091E09093EB001092EC0092E39093ED0089
:1025C0001092060598E09093F00082FF1DC083E012
:1025D0000E94B51280910805882339F08091080582
:1025E000815080930805882369F08091070588232E
:1025F00059F080910705815080930705811104C02F
:10260000289A02C05D9AF1CFFF91EF91BF91AF91EF
:102610009F918F917F916F915F914F913F912F91FA
:102620000F900FBE0F901F9018951092060581E035
:102630008093D70080EA8093D80082E189BD09B4F5
:1026400000FEFDCF61E070E080E090E00E94670C4A
:1026500080E98093D8008CE08093E2001092E00043
:10266000559A209A08950895FF920F931F93CF9340
:10267000DF93EC01F62EE881F9810480F581E02DED
:1026800009958C01E881F9810680F781E02D6F2D95
:10269000CE010995C8019927DF91CF911F910F9124
:1026A000FF900895FC0120812F5F208349E150E0D5
:1026B0006EE572E080E80C942E1145E650E067E785
:1026C00072E080E80C942E11EF92FF920F931F930B
:1026D000CF93DF931F92CDB7DEB789838B017A0149
:1026E00041E050E0BE016F5F7F4F84E00E94931095
:1026F000A701B80184E40E9493100F90DF91CF915D
:102700001F910F91FF90EF900895FC0191818081BE
:10271000813A31F481E0913091F0933089F411C025
:10272000813271F49B3021F482818093170105C0BE
:102730009A3031F482818093160181E008950895E2
:1027400080E0089548E050E082E00C946413CF9359
:10275000DF93DC01683818F0E8E7E60F25C0E62FC4
:10276000F0E067FF11C0E058F10981E090E001C09E
:10277000880FEA95EAF714969C911497982B149673
:102780009C931497E0E010C0E252FE4FE491EE23D8
:1027900009F440C0E7FF08C014968C91149782603A
:1027A00014968C931497EF7716968C9116978E1734
:1027B00041F117968C9117978E1719F118968C91F5
:1027C00018978E17F1F019968C9119978E17C9F0FA
:1027D0001A968C911A978E17A1F01B968C911B97C5
:1027E0008E1779F080E090E0ED01C80FD91F2E819F
:1027F000211102C0EE8305C0019686309105A1F734
:1028000009C0BD016C5F7F4FCD010E94A21381E022
:1028100090E008C081E090E013969C938E9312970D
:1028200080E090E0DF91CF910895683818F0E8E7F4
:10283000E60F25C0E62FF0E067FF12C0E058F1096F
:1028400021E030E001C0220FEA95EAF72095DC0193
:1028500014963C911497322314963C93E0E00FC0F9
:10286000E252FE4FE491EE2329F1E7FF08C0DC01BC
:1028700014962C9114972D7F14962C93EF7720E0CB
:1028800030E0EE2351F0DC01A20FB31F16964C91FD
:1028900016974E1302C016961C922F5F3F4F26309C
:1028A000310579F7BC016C5F7F4F0E94A21381E074
:1028B00090E0089580E090E00895FC011682178270
:1028C00010861186128613861482BC016C5F7F4FBE
:1028D0000C94A2131092150510920C0510920B0582
:1028E00087EA93E090930A0580930905089597FB82
:1028F000072E16F4009407D077FD09D00E94D21459
:1029000007FC05D03EF4909581959F4F08957095F2
:1029100061957F4F0895A1E21A2EAA1BBB1BFD01F2
:102920000DC0AA1FBB1FEE1FFF1FA217B307E407AE
:10293000F50720F0A21BB30BE40BF50B661F771F06
:10294000881F991F1A9469F76095709580959095E6
:102950009B01AC01BD01CF010895052E97FB1EF42C
:1029600000940E94C41457FD07D00E948B1407FCEA
:1029700003D04EF40C94C414509540953095219595
:102980003F4F4F4F5F4F089590958095709561959B
:102990007F4F8F4F9F4F0895EE0FFF1F0590F491CB
:1029A000E02D0994AA1BBB1B51E107C0AA1FBB1F46
:1029B000A617B70710F0A61BB70B881F991F5A95CB
:1029C000A9F780959095BC01CD010895F894FFCFAB
:1029D00000001605800001000800E803E80300E19C
:1029E00000000000000001010A52656164696E6721
:1029F0002073656E736F727320666F7220666972E2
:102A000073742074696D652E2E2E000A43616C6309
:102A1000756C6174696E67206F6666736574732E7A
:102A20002E2E000A46494E495348454421000A5378
:102A3000656E736F722072656164696E677320776B
:102A4000697468206F6666736574733A0900596F1C
:102A50007572206F6666736574733A09000A446183
:102A60007461206973207072696E7465642061738B
:102A70003A206163656C58206163656C592061631D
:102A8000656C5A206769726F58206769726F5920A8
:102A90006769726F5A00436865636B20746861747C
:102AA00020796F75722073656E736F722072656125
:102AB00064696E67732061726520636C6F73652053
:102AC000746F2030203020313633383420302030BD
:102AD00020300049662063616C6962726174696FBD
:102AE0006E207761732073756363657366756C2000
:102AF000777269746520646F776E20796F757220C4
:102B00006F66667365747320736F20796F752063C9
:102B1000616E20736574207468656D20696E20791C
:102B20006F75722070726F6A656374732075736954
:102B30006E6720736F6D657468696E672073696D69
:102B4000696C617220746F206D70752E7365745896
:102B5000416363656C4F666673657428796F75723F
:102B60006F666673657429004D50553630353020D8
:102B7000636F6E6E656374696F6E207375636365F2
:102B8000737366756C004D50553630353020636F69
:102B90006E6E656374696F6E206661696C65640052
:102BA0000A4D5055363035302043616C6962726190
:102BB00074696F6E20536B65746368000A596F7592
:102BC00072204D5055363035302073686F756C6407
:102BD00020626520706C6163656420696E20686F97
:102BE00072697A6F6E74616C20706F736974696F4B
:102BF0006E2C2077697468207061636B6167652053
:102C00006C65747465727320666163696E672075A4
:102C1000702E200A446F6E277420746F75636820CD
:102C2000697420756E74696C20796F7520736565A1
:102C300020612066696E697368206D6573736167D2
:102C4000652E0A0000000000660939090E09160900
:102C50002909380900000000580D9F0D820D920DC2
:102C60006E0D7F0D0D0A006E616E00696E66006F5D
:102C70007666000000000034134C0EA71315145D97
:022C800014003E
:00000001FF
