:100000000C9463000C948B000C948B000C944303B1
:100010000C9443030C9443030C948B000C948B00BE
:100020000C948B000C948B000C948B000C948B0024
:100030000C948B000C948B000C948B000C948B0014
:100040000C94A1020C948B000C9411030C94EB0201
:100050000C948B000C948B000C948B000C948B00F4
:100060000C948B000C948B0000000008000201002F
:100070000003040700000000000000000000000072
:10008000250028002B0000000000240027002A0083
:1000900000000000230026002900040404040404D6
:1000A0000404020202020202030303030303010227
:1000B00004081020408001020408102001020408F6
:1000C0001020BD03E00511241FBECFEFD8E0DEBF36
:1000D000CDBF11E0A0E0B1E0E4E5FCE002C0059096
:1000E0000D92AA33B107D9F722E0AAE3B1E001C02B
:1000F0001D92A334B207E1F710E0C2E6D0E004C0DD
:100100002197FE010E941206C136D107C9F70E944D
:100110009F040C941D060C940000CF92DF92EF9286
:10012000FF920F931F93CF93DF936C017A018B01A2
:10013000C0E0D0E0CE15DF0589F0D8016D918D01CA
:10014000D601ED91FC910190F081E02DC601099559
:10015000892B11F47E0102C02196ECCFC701DF91FB
:10016000CF911F910F91FF90EF90DF90CF90089566
:10017000FC01538D448D252F30E0842F90E0821BAD
:10018000930B541710F0CF96089501970895FC0132
:10019000918D828D981761F0828DDF01A80FB11DBE
:1001A0005D968C91928D9F5F9F73928F90E00895E2
:1001B0008FEF9FEF0895FC01918D828D981731F09C
:1001C000828DE80FF11D858D90E008958FEF9FEFF0
:1001D0000895FC01918D228D892F90E0805C9F4FC6
:1001E000821B91098F739927089587E891E00E94F7
:1001F000E90021E0892B09F420E0822F0895FC0119
:10020000848DDF01A80FB11DA35ABF4F2C91848D9F
:1002100090E001968F739927848FA689B7892C93D4
:10022000A089B1898C9180648C93938D848D98136F
:1002300006C00288F389E02D80818F7D8083089538
:10024000EF92FF920F931F93CF93DF93EC0181E026
:10025000888F9B8D8C8D981305C0E889F9898081E2
:1002600085FD24C0F62E0B8D10E00F5F1F4F0F731E
:100270001127E02E8C8DE8120CC00FB607FCFACFC8
:10028000E889F989808185FFF5CFCE010E94FF00C2
:10029000F1CF8B8DFE01E80FF11DE35AFF4FF08285
:1002A0000B8FEA89FB898081806207C0EE89FF8914
:1002B0006083E889F98980818064808381E090E0AF
:1002C000DF91CF911F910F91FF90EF900895CF9301
:1002D000DF93EC01888D8823C9F0EA89FB8980814E
:1002E00085FD05C0A889B9898C9186FD0FC00FB620
:1002F00007FCF5CF808185FFF2CFA889B9898C9161
:1003000085FFEDCFCE010E94FF00E7CFDF91CF91B7
:10031000089580E090E0892B29F00E94F50081117A
:100320000C940000089590E0FC01E859FF4F3491CF
:10033000FC01E255FF4F2491FC01E656FF4FE4918A
:10034000EE2309F43BC0332339F1333091F038F414
:100350003130A9F0323001F584B58F7D12C03730CD
:1003600091F03830A1F03430B9F4809180008F7D65
:1003700003C0809180008F77809380000DC084B58A
:100380008F7784BD09C08091B0008F7703C08091C2
:10039000B0008F7D8093B000F0E0EE0FFF1FE458B7
:1003A000FF4FA591B4918FB7F894EC91611103C000
:1003B00020952E2301C02E2B2C938FBF08952091C2
:1003C0007C0130917D012817390771F490917A01F1
:1003D00080917B01981741F0E0917A01F0E0E65CB2
:1003E000FE4F808190E008958FEF9FEF089508956C
:1003F0001F93CF93DF93DC015C962D913C915D9729
:100400002115310539F481E090E013969C938E9389
:1004100012973DC05196ED91FC91529750969C9148
:100420005097892F80951FB75E964C915E9741FB40
:10043000772770F941FD6095F8944081772311F09A
:10044000492B01C048234083E9012197F1F748E097
:10045000508160FF02C0592B01C058235083E9012D
:100460002197F1F76695415099F7772321F0908114
:100470008923808303C08081982B90831FBF5C9663
:100480008D919C915D970197F1F721E030E0C901D2
:10049000DF91CF911F91089520917C0130917D01D2
:1004A0002817390771F480917B0120917A0190E03F
:1004B000805C9F4F821B910960E470E00E94EA0516
:1004C000089580E090E0089520917C0130917D01B5
:1004D00028173907B9F490917A0180917B01981718
:1004E00089F0E0917A01F0E0E65CFE4F8081209196
:1004F0007A0130E02F5F3F4F2F73332720937A012B
:1005000090E008958FEF9FEF0895E0917C01F091C6
:100510007D01E817F90769F4A389B4899C9185895D
:10052000809589238C9310927D0110927C0181E04B
:10053000089580E00895089580E090E008950E9475
:1005400018061F920F920FB60F9211242F933F930C
:100550008F939F93AF93BF93809183019091840178
:10056000A0918501B09186013091820126E0230F90
:100570002D3720F40296A11DB11D05C029E8230FD7
:100580000396A11DB11D2093820180938301909356
:100590008401A0938501B093860180917E019091A2
:1005A0007F01A0918001B09181010196A11DB11D33
:1005B00080937E0190937F01A0938001B09381018D
:1005C000BF91AF919F918F913F912F910F900FBE4F
:1005D0000F901F9018951F920F920FB60F92112433
:1005E0002F933F934F935F936F937F938F939F933B
:1005F000AF93BF93EF93FF9387E891E00E94FF00D2
:10060000FF91EF91BF91AF919F918F917F916F91EA
:100610005F914F913F912F910F900FBE0F901F90C0
:1006200018951F920F920FB60F9211242F938F934C
:100630009F93EF93FF93E0919701F0919801808150
:10064000E0919D01F0919E0182FD12C09081809108
:10065000A0018F5F8F732091A101821751F0E0916B
:10066000A001F0E0E957FE4F958F8093A00101C0F3
:100670008081FF91EF919F918F912F910F900FBEED
:100680000F901F9018951F920F920FB60F92112482
:100690002F933F934F935F936F937F938F939F938A
:1006A000AF93BF93EF93FF93E0917C01F0917D01B5
:1006B000309709F451C0968DA685B785858591FF41
:1006C00004C09C91892329F447C09C91892309F097
:1006D00043C0A389B4899C918589809589238C9393
:1006E000868997890197F1F7608D718DA685B78509
:1006F000558538E020E0CB010197F1F7822F90E09B
:1007000095958795282F4C91452309F02068315005
:1007100091F7868D81FD209580917B0190E0019677
:100720008F73992730917A01381749F0A0917B0196
:10073000B0E0A65CBE4F2C9380937B0103C0868DF6
:100740008160868F828D938D0197F1F7A389B4899B
:100750009C918589892B8C93FF91EF91BF91AF91EB
:100760009F918F917F916F915F914F913F912F91C9
:100770000F900FBE0F901F901895CF93DF9310929C
:100780008A011092890188EE93E0A0E0B0E08093A6
:100790008B0190938C01A0938D01B0938E0124E086
:1007A00031E0309388012093870125EC30E03093CD
:1007B00094012093930124EC30E030939601209330
:1007C000950120EC30E0309398012093970121ECC3
:1007D00030E030939A012093990122EC30E030937D
:1007E0009C0120939B0126EC30E030939E012093E6
:1007F0009D011092A0011092A1011092A2011092ED
:10080000A30110922702109226028093280290934F
:100810002902A0932A02B0932B0286E191E09093E3
:1008200025028093240210923B0210923A02109209
:100830003D0210923C0210923F0210923E02109232
:10084000410210924002609142026E7F6D7F609380
:1008500042026695617081E0682785E00E949301FD
:10086000E3EBF0E02491EFE9F0E08491882399F044
:1008700090E0880F991FFC01EA57FF4FA591B491B2
:10088000FC01E458FF4F859194918FB7F894EC9157
:10089000E22BEC938FBFE3EBF0E0E491E0933402C2
:1008A000EFE9F0E0E491F0E0EE0FFF1FE458FF4FB6
:1008B000859194919093360280933502E2EBF0E0BB
:1008C0002491EEE9F0E084918823C1F090E0880F54
:1008D000991FFC01EA57FF4FC591D491FC01E458E0
:1008E000FF4FA591B4919FB7F8948881E22FE095CE
:1008F0008E2388838C91E823EC939FBF80914202E2
:1009000081FD04C061E084E00E94930184E0809353
:100910003002E2EBF0E0E491E0933102EEE9F0E046
:10092000E491F0E0EE0FFF1FE057FF4F85919491A7
:100930009093330280933202DF91CF91089578949F
:1009400084B5826084BD84B5816084BD85B58260D4
:1009500085BD85B5816085BD80916E008160809385
:100960006E001092810080918100826080938100EE
:1009700080918100816080938100809180008160FE
:10098000809380008091B10084608093B100809159
:10099000B00081608093B00080917A008460809381
:1009A0007A0080917A00826080937A0080917A0048
:1009B0008E7F80937A0080917A00806880937A009D
:1009C0001092C100E0919701F091980182E080833C
:1009D000E0919301F09194011082E0919501F091E2
:1009E000960188E0808310929F01E0919B01F09135
:1009F0009C0186E08083E0919901F0919A018081C9
:100A000080618083E0919901F0919A0180818860F2
:100A10008083E0919901F0919A01808180688083C0
:100A2000E0919901F0919A0180818F7D808342E16C
:100A300050E064E271E087E891E00E948D0042E0BE
:100A400050E067E371E087E891E00E948D0010922A
:100A50003F0210923E0210923D0210923C02109210
:100A60003B0210923A0281E390E09093410280931E
:100A7000400290913002963108F057C027E030E0F4
:100A800030933B0220933A022FE230E030933D0254
:100A900020933C022BE130E030933F0220933E0252
:100AA00020916800983050F031E09E3008F430E03A
:100AB00081E001C0880F3A95EAF701C084E0822BFB
:100AC00080936800983038F09E3040F0963148F0BE
:100AD00020E030E008C02DE630E005C02BE630E035
:100AE00002C02CE630E03093380220933702983071
:100AF00030F481E001C0880F9A95EAF70EC0292FE3
:100B000030E09E3018F42850310902C02E503109CF
:100B100081E001C0880F2A95EAF78093390280911D
:100B20004002909141020197F1F780913E0290912D
:100B30003F02892B21F180917C0190917D0122E07F
:100B400084329207E1F0009711F00E9485028091B3
:100B500042028E7F8093420210927B0110927A01B2
:100B600084E292E090937D0180937C01E0913702D2
:100B7000F0913802908180913902892B808384E240
:100B800092E00E944C02892B49F084E292E00E949C
:100B90006402682F87E891E00E94200187E891E0D5
:100BA0000E94E900892B49F087E891E00E94C70084
:100BB000682F84E292E00E94F8010E948901DFCF51
:100BC00086E191E0909325028093240284E292E0F2
:100BD0000C94850297FB072E16F4009407D077FD3E
:100BE00009D00E94FE0507FC05D03EF49095819542
:100BF0009F4F0895709561957F4F0895AA1BBB1B69
:100C000051E107C0AA1FBB1FA617B70710F0A61B0C
:100C1000B70B881F991F5A95A9F780959095BC012D
:100C2000CD010895EE0FFF1F0590F491E02D09947A
:100C300081E090E0F8940C941D0610E0C2E6D0E04C
:100C400004C0FE010E9412062196C336D107C9F7DF
:040C5000F894FFCF46
:100C54000000000020018D00B8006701E900C70012
:100C6400DB0000000000F8018D009C02F7014C023B
:100C74006402DF01456E74657220415420636F6D18
:0A0C84006D616E64733A000D0A0002
:00000001FF
